:020000040000FA
:1000000001306500003066008330620004309000EB
:100010007F3091008101920142200108031D1228C6
:10002000FF308600A9012A204220A90A2A20422066
:10003000A90A2A204220A90A2A204220A90A2A2005
:100040004220A90A2A204220A90A2A204220A90ADD
:100050002A200C2819308400180884070008910011
:10006000910D910D910D0108110203180800060869
:10007000AB20860008001D3090070310900D031878
:1000800090060034051800347C20130894007C206E
:10009000130895007C2013089600F0301405903C5E
:1000A00003195828F0301405803C03196F280034D8
:1000B0008514160803196F2814080F3998001208C0
:1000C0009C209200193084001808840715088000CD
:1000D0002130840018088407003080000134851026
:1000E00014080F3998001208AB20920019308400D0
:1000F000180884078001013418309700970B7E2878
:1001000008309800930C051C8828931700008B2852
:1001100093130000000017309700970B8D28980B61
:1001200082280000000000000000000000001A30DB
:100130009700970B9928080097001808A2209704A9
:1001400017080800820701340234043408341034DC
:1001500020344034803497001808B12097051708E0
:1001600008008207FE34FD34FB34F734EF34DF340B
:04017000BF347F34E5
:02400E00FB3F76
:00000001FF
